:020000040800F2
:10000000D0350020010100080501000807010008A3
:10001000090100080B0100080D01000800000000A4
:1000200000000000000000000000000011010008B6
:100030000F01000800000000DF250008E1030008B0
:10004000FF03000801040008030400080504000879
:100050005D0400085F0400086104000863040008F0
:10006000CD0400086504000867040008690400085E
:100070006B0400086D0400086F0400087104000898
:100080007304000875040008770400087904000868
:10009000530D00087B0400087D040008B10500082A
:1000A0007F04000881040008830400088504000818
:1000B00087040008890400088B0400088D040008E8
:1000C0008F040008910400089304000895040008B8
:1000D00097040008990400089F0B00089B0400087F
:1000E0009D0400089F040008A1040008000000000F
:1000F0000000000000000000000000000000000000
:1001000004480047FEE7FEE7FEE7FEE7FEE7FEE7FE
:10011000FEE700001901000800F002F800F03CF8CA
:100120000AA090E8000C82448344AAF10107DA4552
:1001300001D100F031F8AFF2090EBAE80F0013F068
:10014000010F18BFFB1A43F0010318470C520000BF
:100150002C520000103A24BF78C878C1FAD8520750
:1001600024BF30C830C144BF04680C607047000031
:100170000023002400250026103A28BF78C1FBD8B0
:10018000520728BF30C148BF0B6070471FB505F04C
:1001900052F81FBD10B510BD05F011F81146FFF75C
:1001A000F5FF00F0E0F805F02FF803B4FFF7F2FFD9
:1001B00003BC05F039F8000030BF704720BF70471E
:1001C00040BF7047BFF36F8F7047BFF34F8F7047CB
:1001D000BFF35F8F704701DF7047EFF31480704704
:1001E00080F31488BFF36F8F7047EFF30980704777
:1001F00080F309887047EFF30880704780F3088820
:10020000704762B6704772B67047EFF31080704760
:1002100071B6704761B67047EFF31380704780F393
:1002200011887047EFF31280704740BA704700BAE8
:100230007047000002480349034A044B704700001E
:10024000D0310020D0350020D0330020D033002022
:1002500010B586B04FF40074032300220294514875
:10026000CDE903230523CDE9003000F2FC72002123
:100270004D4804F05AF90323002202944B48CDE97B
:1002800003230423CDE9003000F2FC72002148482A
:1002900004F04BF90323002202944648CDE90323DE
:1002A0000623CDE9003000F2FC720021424804F040
:1002B0003CF905A9002002F0B8FD404C0121A060E6
:1002C00004F1100003F033FCE060012104F1180098
:1002D00003F02DFC606105A9092003F09EF938495F
:1002E000086006B010BD00F02BFB00F0F0FA00F043
:1002F00008FB00F015FB00F096FB00F00EFC314D02
:10030000D5F808042D4FC0F30720C043786000F0F3
:1003100089FC00F038FA002110B10120387000E0AB
:1003200039707970B970F9700024FFF791FF4FF4BC
:100330008066B84677004FF4FA79641CE4B2E007AF
:1003400002D0C5F8146801E0C5F8106898F80000FC
:10035000FF2805D0C5F81078484604F083FBECE789
:10036000C5F81478F8E700B585B000F0AEFA00F0F3
:100370005BFA02F04BFA14480DF1040C032300223F
:100380004FF48071ACE80F00072300F57F72002165
:100390000E48009304F0C9F802F04BFB05B00020B2
:1003A00000BD00009C040020F50700089C0C002004
:1003B0000F0800089C1400201F08000800000020FF
:1003C00030000020001001409C000020E7020008DF
:1003D0007047FEE7FEE7FEE7FEE7704770477047AD
:1003E00010B502F0DBF8374A1178491C117002F0A1
:1003F000D9F802F067FBBDE8104002F0A4BA7047DC
:100400007047704710B501F0ACF92F494FF46164A3
:100410000844A0421DD201F0A4F9B0FBF4F104FBA2
:100420001100A0F6D4503C2813D201F09AF9B0FB89
:10043000F4F104FB11003C21B0FBF1F201FB1200CE
:100440003B2806D101F0BDF9002001F090F901F040
:10045000B8F9BDE81040012001F0E0B970477047DD
:1004600070477047704770477047704770477047D4
:1004700070477047704770477047704770477047C4
:1004800070477047704770477047704770477047B4
:1004900070477047704770477047704770477047A4
:1004A0007047704770477047704770477047704794
:1004B0007047704770477047704770477047704784
:1004C000704700004200002090BCFEFF38B502F0EB
:1004D00030FA042000F0D2FCA8B1304D304C28781E
:1004E00028B901226B461146206802F0BEFE28782A
:1004F000022805D16B4601220421206802F0B5FED6
:10050000042000F0C8FC02F01EFA38BD70B586B0B9
:10051000002405AB224800930194029403940494B0
:10052000234682220121006802F0CBFD002000F06A
:10053000A5F81A4E78B31B491B4D00202A18927A51
:100540000A54401CC0B20428F8D3042000F096F8E6
:1005500008B3082000F092F8E8B1E87A01281AD030
:10056000A87B012810D1D5F80B00CDE901048DF846
:100570000C408DF80D400DF10D0000F016FC01A9A6
:10058000082000F0B8F830B1022030700748016848
:1005900041F060010160347006B070BD00000020C1
:1005A0000800002028000020DC1C0020000401407E
:1005B00038B502F0BEF9402000F060FC204C214D1F
:1005C00068B1D4F8000420F06000C4F800046B4661
:1005D00001220221286802F048FE402010E080201D
:1005E00000F04CFC70B1D4F8000420F06000C4F8B6
:1005F00000046B4601220221286802F036FE8020AA
:1006000000F049FC02F09FF938BD1CB501AB0D4864
:100610000093002382220221006802F052FD4FF471
:10062000FA7004F01FFA08488168806807490020C2
:1006300008700748016821F0600101601CBD0000DE
:1006400000000140080000200010014000000020D0
:100650000004014030B500231A464C1E03E0855CBF
:100660006B40521CD2B2A242F9DB084410F8010CD4
:10067000984201D1002030BD012030BD38B5594A23
:10068000FF230021137053700A2393701223D37039
:1006900011715071544B06201C1814F8064C145458
:1006A000401CC0B20C28F7D30220135C401C5940F8
:1006B000C0B20C28F9D311730C214A4800F0E0F9BC
:1006C0004A4C6A464FF47A71606803F04BFD9DF81E
:1006D00000000A280BD02088C1B204F10800FFF7FF
:1006E000B9FF8DF8000010B9607A122801D00020FF
:1006F00038BD012038BD38B53A4BFF2400221C70AC
:100700005C701A249C701324DC7001241C715871D5
:10071000354C0620A41D251815F8065C1D54401CF8
:10072000C0B20C28F7D30C200C1814F80C4C1C5435
:10073000401CC0B21C28F7D30220195C401C4A4060
:10074000C0B21C28F9D31A771D21264800F098F969
:10075000264C6A464FF47A71606803F003FD9DF8F9
:1007600000000A280BD02088C1B204F10800FFF76E
:1007700071FF8DF8000010B9607A122801D00020B6
:1007800038BD012038BD3EB5FF208DF800008DF842
:10079000010002208DF8020011208DF803001320C3
:1007A0008DF804000521684600F0E4F9104C02AA17
:1007B0004FF47A71606803F0D5FC9DF808000A28B0
:1007C0000BD02088C1B204F10800FFF743FF8DF879
:1007D000080010B9607A112801D000203EBD012028
:1007E0003EBD00009C1C00201C000020DC1C0020E2
:1007F000241D002000F008F9094C207808B9FFF703
:1008000085FE20780228F8D1FFF7FFFEF5E708B54E
:10081000044C6A460021A06803F0A4FCF9E7FEE757
:10082000000000206C1D002010B586B000F0DEFD39
:100830004FF48034204600F0F1FD00F01CFE6B49BF
:1008400008700878012822D1102001F00DF802204C
:1008500000F0F8FF002000F047FE002000F052FEFC
:10086000A01100F048FE4FF4C011204600F025FE14
:10087000012000F02AFE392000F0E8FD0028FAD01F
:10088000022000F025FE00F02AFE0828FBD10121FD
:1008900045F27D0000F0B4FE0121554800F0B9FE9C
:1008A000684600F062FE01984FF47A71B0FBF1F0F7
:1008B00000F00AFF042000F0FBFE012000F008FF1A
:1008C000012000F017FF06B010BD01F0BBBE4A4882
:1008D000484A02604FEA321141604FF04431C0F89B
:1008E0000014C0F804144648444B03604260C0F84A
:1008F0000014C0F80414C0F800184249C0F80418E5
:10090000704710B50221012000F0D4FB062102201F
:1009100000F0D0FB0721BDE81040022000F0CABB68
:100920001CB5C420009000208DF804000C208DF828
:10093000050001208DF80600684600F042FA1CBD53
:1009400038B500214FF0006000F091FC4FF440708A
:1009500000F0FDFB34208DF8000000248DF80240EB
:1009600001258DF80350684600F0F6FB26208DF82F
:1009700000008DF802408DF80350684600F0ECFB53
:1009800014208DF800008DF801408DF802408DF89C
:100990000350684600F0E0FB08208DF800008DF859
:1009A00002408DF80350684600F0D6FB17208DF802
:1009B00000008DF802408DF80350684600F0CCFB33
:1009C00038BD10B545F2555001F010FC062001F07D
:1009D00010FC40F20D3001F00FFC01F010FCBDE8FE
:1009E000104001F011BC01F00ABC00002C000020F6
:1009F00000402E02444B4444000801403344444428
:100A0000001001404433434470B5824C0025284611
:100A1000258003F01FFB606048340020258003F030
:100A200019FB606070BD1FB54FF416500090002098
:100A3000ADF80400ADF80600ADF80800ADF80C0004
:100A40000C20754CADF80A006946204601F01DFCEB
:100A5000012240F22551204601F084FC012120466C
:100A600001F076FC1FBD4FF04021B1F8002C1206BA
:100A7000FBD5A1F8040CB1F8000C4006FBD570477B
:100A800030B504460D4600230CE0E05CFFF7EBFFB9
:100A9000022B05D3E05CFF2802D10020FFF7E3FF23
:100AA0005B1C9BB2AB42F0D330BD2DE9F04101F0AD
:100AB00040FF594F40F225563146384601F0F5FCCB
:100AC000E8B107F104000088544DC4B2514A552CD6
:100AD00002D12878FF281AD01188D1B12878FF28B0
:100AE0000CD04C4B0833CC541088401C80B2108082
:100AF000117A884202D1506803F0C3FB2C70314652
:100B0000384601F0F1FCBDE8F04101F01CBF0020C7
:100B100001E0147201201080F0E71FB54FF4165069
:100B200000900020ADF80400ADF80600ADF8080014
:100B3000ADF80C000C203A4CADF80A00694620468E
:100B400001F0A3FB012240F22551204601F00AFCEE
:100B50000121204601F0FCFB1FBD4FF04021B1F800
:100B600000241206FBD5A1F80404B1F800044006E5
:100B7000FBD5704730B504460D4600230CE0E05C21
:100B8000FFF7EBFF022B05D3E05CFF2802D100202A
:100B9000FFF7E3FF5B1C9BB2AB42F0D330BD2DE906
:100BA000F04101F0C6FE1E4F40F225563146384650
:100BB00001F07BFCF8B107F104000088154AC4B2CB
:100BC000164D02F14802552C02D16878FF281AD040
:100BD0001188D1B16878FF280CD00E4B5033CC541B
:100BE0001088401C80B21080117A884202D150686F
:100BF00003F047FB6C703146384601F075FCBDE8E8
:100C0000F04101F0A0BE002001E01472012010802C
:100C1000F0E70000DC1C0020004C00402D0000200C
:100C2000004400402DE9FF41064601214FF4EA103F
:100C300000F01FFA4FF48070ADF8000048208DF8E6
:100C40000300564D03248DF802406946284600F003
:100C500086F96815ADF8000018208DF803008DF8AE
:100C600002406946284600F07AF900F0DFFF684646
:100C700001F0C6F8002401250C208DF800408DF805
:100C800008008DF801508DF802508DF809500427A6
:100C90008DF803400194ADF80A70684600F0D2FF69
:100CA000C6F34F30ADF8040007EBC600ADF8060000
:100CB0004FF6FF708DF80040ADF808008DF8014048
:100CC000ADF80A00ADF80C408DF802508DF80E50CA
:100CD000684601F02BF80121022001F0A1F8BDE8DF
:100CE000FF812DE9F04F2E4F87B006460D460024B8
:100CF00005AA2146386802F07CFDA14641F2342A5B
:100D00004FF0040BE8461CE08DF808B0281BCDF826
:100D100004A08DF80990082800DB08208DF80A004F
:100D20000020414606E0325D0B18641C401CDA725C
:100D3000E4B2C0B29DF80A208242F4D8684601F0BD
:100D40007AF8AC42E0D3386802F03AFE07B0BDE86A
:100D5000F08F70B586B001F0ECFD6946002001F01F
:100D600030F9104A00206E4602F10C049DF80A503A
:100D70000BE031189388C97A1955918853889942A4
:100D800001D2491C9180401CC0B28542F1D89068C4
:100D900003F077FA01F0D7FD06B070BD000C0140FA
:100DA000300000206C1D002070477047704770476E
:100DB0003A480021016041608160C1603849416169
:100DC000704710B5837937490268B3B3D1F800345E
:100DD0009343C1F80034D1F8042403689A43C1F85E
:100DE000042402790A44D2F8003404682343C2F888
:100DF0000034D1F8082403689A43C1F80824D1F8D4
:100E00000C2403689A43C1F80C244279102A07D0B5
:100E10001144D1F8002400680243C1F8002410BD39
:100E200001F581610A68036842EA03020A604A68C0
:100E3000006842EA00024A6010BDFFE700790844FA
:100E4000D0F800149143C0F80014F5E700210160C8
:100E500001710C2242718171704713490A6842EA9C
:100E600000020A607047114A0146002012680A42D7
:100E700000D0012070470D4908607047074B0146BC
:100E800000201A685B6902EA01020B4202D0002AC4
:100E900000D00120704705490860704700040140F8
:100EA000FFFF07000000014010040140140401404E
:100EB000894A10B5811A1315D41490422ED00DDC36
:100EC000864940181CD0984221D0A0423BD1012134
:100ED000102000F0A7FB002110200DE0994224D043
:100EE000A14229D0B1F5406F2DD101210C0220463D
:100EF00000F098FB00212046BDE8104000F092BBB6
:100F00000121042000F08EFB00210420F4E70121E0
:100F1000082000F087FB00210820EDE701212020B8
:100F200000F080FB00212020E6E70121402000F0B6
:100F300079FB00214020DFE70121802000F072FBD7
:100F400000218020D8E710BD10B50121084600F02F
:100F500069FB0021BDE81040012000F063BBF0B543
:100F6000CC78002204F00F03E40601D58C782343EB
:100F70000C884FF00F0C14F0FF0F4FF0010E19D03A
:100F800005680E880EFA02F42640A6420ED196009D
:100F90000CFA06F7BD4303FA06F63543CE78282E41
:100FA00000D14461CE78482E00D10461521C082A39
:100FB000E7D305600A88FF2A1DD94568002202F19F
:100FC00008060EFA06F40E882640A6420FD19600B7
:100FD0000CFA06F725EA070703FA06F5CE783D4333
:100FE000282E00D14461CE78482E00D10461521CD5
:100FF000082AE4D34560F0BD4FF6FF71018002215D
:1010000081700421C17070470246002092680A4234
:1010100000D001207047806880B2704702460020EF
:10102000D2680A4200D001207047C06880B2704781
:1010300001617047416170470AB1016170474161C8
:101040007047C160704741F4803282618161826182
:10105000816980697047224B10B51A684FF6807419
:10106000224042EA00100843186010BD1D49C861C3
:101070007047F0B51A4D6B68420D120184B2C0F38F
:1010800001579440C0F30346032F05D0C0020AD590
:101090000320B040834307E0686823F0706220F0CB
:1010A0007060686002E0A34343F0706201B12243C4
:1010B0006A60F0BD10B58A0721F003040849120FD9
:1010C00021440F238C6893409C438C608B68904034
:1010D00003438B6010BD00000014014000F8FEBF08
:1010E000000001400000204200204FF0E021431E9C
:1010F000C1F880311A09C1F88421C1F88032C1F8E1
:101100008422024601EB8003C3F80024401C0F2810
:10111000F8D37047AD494FF0206200200A600246C4
:101120004860AB4B8B60C8600861A1F6045101EBCD
:101130008003C3F8182D401C0328F8D301F624516E
:101140000A604FF0FF3048608860C8607047A0496F
:101150000843A04908607047F0B50F24C2780178B1
:101160004FF0E023012742B3D3F80C2D02F4E062E4
:10117000C2F5E062120AC2F10405D4404278AA40E6
:101180008578254015438A072C01D20E944021F022
:101190000301CE18D6F80054FF2191408D430C4036
:1011A0002543C6F80054007800F01F018F40400925
:1011B00003EB8000C0F80071F0BD01F01F00874014
:1011C000480903EB8000C0F88071F0BD0021017078
:1011D00041708170C1707047FFF715B8FFF711B803
:1011E000FFF716B8FFF716B80001FFF718B8FFF7BA
:1011F00019B876480068C0F309307047014601F01D
:101200001F0301229A40002049094FF0E02303EB1D
:101210008101D1F800128A4300D1012070476E4944
:101220000860704700F01F020121914040094FF013
:10123000E02202EB8000C0F880127047634800682B
:10124000C0F309007047014601F01F0301229A40D4
:10125000002049094FF0E02303EB8101D1F800138E
:101260008A4300D1012070475C48006870475C4A9F
:10127000114001435B480160704755485549001DC6
:101280000860704752485349401C086070474FF04F
:10129000E0220029D2F8101D01D0014300E0814373
:1012A000C2F8101D704700F01F02012090404FF05F
:1012B000E0220029D2F8241D01D0014300E081433F
:1012C000C2F8241D704770B54FF0E025FF24D5F813
:1012D0000C3D03F4E063C3F5E0631B0ADC40C3F19B
:1012E0000406B14022400A43110100F0C0029209F5
:1012F000C0F30120C0008140FF23834005EB820042
:1013000000F61850026822EA03020260026842EA0C
:101310000102026070BD0146C1F383220020012159
:101320009140314A126802EA01028A4200D101204A
:101330007047264900F01F000B684FF0010202FAC7
:1013400000F243EA02030B607047204900F01F00DF
:101350000A68A0F101004FF0010303FA00F342EA2A
:1013600003020A6070470146C1F383320020012165
:1013700091401D4A126802EA01028A4200D101200E
:101380007047C0F38142C0F301514FF0E02022B119
:10139000012A05D0D0F8300D7047D0F82C0D7047D9
:1013A000D0F8280DCA00D040022902D000F00F006A
:1013B0007047C0B27047C0F380504FF0E02110B1C9
:1013C000D1F8380D7047D1F8340D704704ED00E0C6
:1013D0000000FA050CED00E000EF00E000ED00E099
:1013E00080FFFF1F08ED00E024ED00E0A348016846
:1013F00041F0010101604168A14A1140416001686A
:10140000A04A11400160016821F480210160416817
:1014100021F4FE01416000218160704797490A680C
:1014200022F480320A600A6822F480220A60B0F551
:10143000803F07D0B0F5802F03D1086840F4A0208A
:1014400008607047086840F48030F9E703460020E0
:1014500059098A4A01290AD002290AD0516A03F09F
:101460001F02012393400B4200D0012070471168F6
:10147000F5E7116AF3E730B5834C40F2FF153120F0
:10148000FFF7E4FF20706068401C6060207810B9AE
:101490006068A842F3D13120FFF7D8FF002800D0C0
:1014A000012030BD754A116821F0F80141EAC00001
:1014B00010607047754908607047704B5A68084360
:1014C00022F47C12104358607047704908667047D8
:1014D0006A4A516821F0030101435160704767482F
:1014E000406800F00C007047644A516821F0F00138
:1014F000014351607047614A516821F4E061014342
:10150000516070475D4A516821F4605141EAC00062
:1015100050607047594A0029517A01D0014300E0D8
:101520008143517270475A4908607047534A516865
:1015300021F44041014351607047564900220A702E
:1015400001F82029012802D0042802D1052081F8C1
:101550002000704750490860704748490A6A0243B2
:101560000A6270474D4908607047444A10B5516897
:101570004B4B11F00C0103D0042901D0082901D0F4
:10158000036011E05168022301F4701103EB9141F3
:10159000536813F4803F02D053689B0301D5414B3D
:1015A00000E03F4B5943016051683F4B01F0F001AF
:1015B00009095C5C0168E1404160546804F4E0643E
:1015C000240A1C5D21FA04F48460546804F4605415
:1015D000E40A1B5DD940C1605268334B02F44042BB
:1015E000920B1B1F9A5CB1FBF2F1016110BD234A03
:1015F0000029516901D0014300E0814351617047E6
:101600001E4A0029916901D0014300E081439161A4
:1016100070471A4A0029D16901D0014300E0814393
:10162000D1617047154A0029D16801D0014300E01B
:101630008143D1607047114A0029116901D00143EB
:1016400000E08143116170471849086070470F49F5
:10165000C86470470949C87170470848416A41F039
:10166000807141627047054A0146002092680A4233
:1016700000D0012070470149887270470010024075
:101680000000FFF8FFFFF6FE340000200000424299
:10169000D800424220100240800442423C044242B0
:1016A00000127A0000093D004852000840044242FE
:1016B0004FF0E0210428086903D020F004000861FD
:1016C000704740F00400FAE74FF0E02148617047AE
:1016D0004FF0E021012804D0801C06D00020886152
:1016E0007047086940F0010002E0086920F001003D
:1016F000086170474FF0E0210028086902D040F0EF
:10170000020001E020F00200086170474FF0E02085
:101710008069704702460020D1084FF0E02302297B
:1017200006D0D969012393400B4200D001207047B5
:101730001969F7E73C4A0029B2F8001801D00143C3
:1017400000E08143A2F8001870473848018841F052
:101750001001018070473548018821F01001018097
:10176000704733498888098840EA0140704700B5CE
:101770000246FFF7EAFF2E48110C018082805DF8D7
:1017800004EBE8E700B50246FFF7DFFF2948C2F3A4
:101790000341018082805DF804EBDCE700B502467E
:1017A000FFF7D3FF2448110C018082805DF804EB21
:1017B000D1E72248018880884FEA017140EA113060
:1017C00070471948B0F804188906FBD570471648C9
:1017D000B0F8041821F00801A0F80418B0F80418B3
:1017E0000907FBD57047114A0146002012880A42BA
:1017F00000D0012070470D490A8822EA00020A80C1
:1018000070470F4A9188128801EA0001C9B202426A
:1018100002D009B1012070470020704703490A88AF
:1018200022EA00020A80704700200040042800409D
:1018300018280040082800402028004010280040B8
:1018400000280040F3490A6802F038020A600A687A
:1018500002430A607047EF490A6822F008020A60F2
:101860000A6802430A607047EA490A6822F01002D7
:101870000A600A6802430A607047E648E649416028
:10188000E64941607047E348016941F08001016128
:101890007047E0490420CA68D20701D00120704790
:1018A000CA68520701D502207047C968C906FBD52E
:1018B0000320704700B50346FFF7EBFF05E0FF216B
:1018C000491EFDD1FFF7E5FF5B1E012803D0002B69
:1018D00000D1052000BD002BF1D1FAE770B5054617
:1018E00040F6FF763046FFF7E5FF042813D1C94CD8
:1018F000206940F0020020616561206940F04000ED
:1019000020613046FFF7D6FF012804D0216941F657
:10191000FD721140216170BD30B540F6FF7528465B
:10192000FFF7C8FF042812D1BA4C206940F0040028
:101930002061206940F0400020612846FFF7BAFF8F
:10194000012804D0216941F6FB721140216130BDAC
:1019500030B540F6FF752846FFF7ACFF042828D1C4
:10196000AC4CAD48A060AD48A060206940F02000BC
:101970002061206940F0400020612846FFF79AFF6F
:1019800041F6EF7504280FD1206941F6DF71084058
:101990002061206940F010002061A149A520088045
:1019A0004FF00F00FFF786FF012802D02169294080
:1019B000216130BDF0B506460D460F20FFF77AFFD6
:1019C000042816D1934C206940F001002061358035
:1019D0000F20FFF76FFF41F6FE77042804D1280C93
:1019E00070800F20FFF766FF012802D0216939407F
:1019F0002161F0BD70B505460E460F20FFF75AFF76
:101A000004280FD1834C206940F0010020612E8012
:101A10000F20FFF74FFF012804D0216941F6FE7225
:101A20001140216170BD70B505460E460F20FFF7CD
:101A300041FF042813D1774C7748A0607748A06015
:101A4000206940F0100020612E800F20FFF732FF48
:101A5000012804D0216941F6EF721140216170BD67
:101A60002DE9F041C043C4B2C0F30725C0F30746D7
:101A7000070E0F20FFF71EFF04283AD1DFF89481EC
:101A8000654AC8F80820654AC8F80820D8F8102028
:101A900042F01002C8F81020DFF888C1FF2C06D0F1
:101AA000ACF808480F20FFF705FF042818D1FF2DD8
:101AB00006D0ACF80A580F20FFF7FCFE04280FD11F
:101AC000FF2E06D0ACF80C680F20FFF7F3FE0428B9
:101AD00006D1FF2F06D0ACF80E780F20FFF7EAFEF4
:101AE000012806D0D8F8102041F6EF731A40C8F844
:101AF0001020BDE8F08170B5064640F6FF75284617
:101B0000FFF7D8FE042818D1424C4348A060434850
:101B1000A060206940F020002061206940F0400072
:101B200020612846FFF7C6FE41F6DF71042805D084
:101B3000012802D022690A40226170BD2069084054
:101B40002061206940F01000206136480EB100216C
:101B500000E0A521A0F800182846FFF7ABFE0128F9
:101B6000EBD0216941F6EF721140216170BDF0B5F3
:101B7000284C054628480E461746A0602748A06016
:101B80000F20FFF797FE042814D1206940F01000C1
:101B90002061354324493D4345F0F80008804FF06B
:101BA0000F00FFF787FE012804D0216941F6EF728C
:101BB00011402161F0BD1748C06980087047154881
:101BC000006A704713490020C969890700D50120C0
:101BD0007047104900200968890600D50120704728
:101BE0000C4A0029116901D0014300E081431161D1
:101BF000704701460020074A012903D0D2680A42F3
:101C000003D17047D169C907FBD001207047014952
:101C1000C86070470020024023016745AB89EFCDC3
:101C200000F8FF1F00F0FF1F02F8FF1F10B5012191
:101C30004C062046FFF7FFFC2046BDE8104000217F
:101C4000FFF7F9BCFB4900220123C1F80034D1F8A9
:101C50000434DB0756D00278012AD1F8002453D08F
:101C600022F08002C1F800244278012AD1F8002431
:101C70004DD022F04002C1F800248278012AD1F828
:101C8000002447D022F02002C1F80024C278012AA3
:101C9000D1F8002441D022F01002C1F800240279CA
:101CA000012AD1F800243BD022F00802C1F8002418
:101CB0004279012AD1F8002435D022F00402C1F87B
:101CC00000248279C379920742EA0362037A42EAE6
:101CD0000342437A408942EA0352401E0243C1F85C
:101CE0001C24D1F80004012220F00100C1F80004F6
:101CF0009002401E0004000CFBD1D1F80404C00780
:101D000000D000221046704742F08002AAE742F05D
:101D10004002B0E742F02002B6E742F01002BCE712
:101D200042F00802C2E742F00402C8E710B50278A8
:101D300001219140C04A89B2136843F00103136046
:101D4000D36923EA0103D3618378A2F5C062B3B9F2
:101D5000D2F80C368B43C2F80C36C388448943EA68
:101D60000443047802EBC404C4F840368388048931
:101D700043EA0443047802EBC404C4F8443683788D
:101D8000012B14D1D2F80C360B43C2F80C36047870
:101D9000436802EBC4044FEA3343C4F84036047886
:101DA000836802EBC4044FEA3343C4F844364378F3
:101DB000002BD2F8043605D00B43C2F804368389D1
:101DC00013B106E08B43F8E7D2F814368B43C2F820
:101DD00014368389012B04D1D2F814360B43C2F890
:101DE0001436807B012804D1D2F81C060843C2F8BF
:101DF0001C06D2F8000620F00100C2F8000610BD53
:101E00000021017041708170C17001714171817157
:101E1000C171032101720221417201214181704788
:101E2000844A0029D2F8141401D0014300E0814310
:101E3000C2F81414704730B57E490022D1F8083436
:101E40005B010AD4D1F80824120101D5012204E073
:101E5000D1F80824D20034D5022201EB0211D1F8C6
:101E6000803503F00103C1F88035037A5BB3446821
:101E7000E4004460D1F880552543447A23431D4350
:101E8000C1F88055837A01F5B06103F00F038372C6
:101E90004B6823F00F034B604B68847A43EA0403DA
:101EA0004B60C37AC46843EA04238B60C37B006938
:101EB00043EA0020C860086840F00100086010464E
:101EC00030BD0422FBE703685B050360D1F8804561
:101ED0001C43437A1C43C1F88045D3E7554A00218F
:101EE00020B1012812D0022821D127E002F5816219
:101EF000106800F0010041EA8001106800F0020063
:101F000040EA01001168C1F380610EE002F58162D0
:101F1000106800F4807041EA9010116801F40071BB
:101F200040EA11201168C1F3C06141EA0001A9B182
:101F3000052901D0072913D00020704702F58162DE
:101F4000106800F4803041EA9030116801F40031EB
:101F500040EA11401168C1F30071E6E702207047C2
:101F600001207047334950B101280DD0022805D116
:101F7000D1F8080440F40000C1F808047047D1F813
:101F8000080440F08000F7E7D1F8080440F400406E
:101F9000F2E72849202210B1C1F810247047C1F897
:101FA0000C2470470100234A4FF0000006D001299D
:101FB00003D1D2F8100400F003007047D2F80C04EB
:101FC000F9E71C4A02EB0012D2F8B03513F0040313
:101FD0000B72D2F8B03531D0DB084B6002F5B66237
:101FE000136803F002034B72536803F00F038B7204
:101FF00053684FEA1323CB749368CB7293684FEA0C
:1020000013230B7393684FEA13434B7393684FEAA0
:1020100013638B73D368CB73D3684FEA13230B74AA
:10202000D3684FEA13434B74D2684FEA12628A7442
:10203000AFE7000000600040006600405B0D0B60F1
:10204000CCE76749086840F0020008600968012091
:10205000890700D400207047614900200A6822F0F7
:1020600002020A600968890700D4012070475D4AAE
:102070000146002012680A4200D0012070475949E9
:102080000A6822EA00020A60704730B402464FF440
:10209000807100200C02544B402A36D013DC072AF2
:1020A00029D008DC042A2AD0052A21D0062A3DD1CD
:1020B000D3F8080434E0082A24D0202A36D1D3F8F3
:1020C000100408212CE0B2F5806F26D008DC8A428B
:1020D0001FD0B2F5007F29D1D3F8180402211FE0E8
:1020E000A24220D0B2F5003F20D1D3F804040EE084
:1020F000D3F808040FE0D3F80804214610E0D3F821
:102100000C04DEE7D3F80C0401E0D3F8100410212E
:1021100006E0D3F81804012102E0D3F818040421E2
:1021200030BC00F057B8D3F80404CAE730BC70479D
:1021300030B54FF4807425022B4908221023402823
:1021400036D012DC07282AD008DC04282AD005283B
:1021500021D0062801D1C1F8084430BD082824D078
:102160002028FAD1C1F8102430BDB0F5806F27D0F7
:1021700009DCA0421FD0B0F5007FF5D1D1F81804DA
:1021800020F0020020E0A84221D0B0F5003FEBD1C2
:10219000C1F8043430BD0120C1F8080430BDC1F8D5
:1021A000085430BDC1F80C2430BDC1F80C3430BD2A
:1021B000C1F8103430BDD1F8180420F0010003E05C
:1021C000D1F8180420F00400C1F8180430BDC1F89B
:1021D000042430BD024600200A4200D0012070478E
:1021E0000064004018640040006000400D49086031
:1021F00070470C49486070470A4988607047094930
:102200004AF6AA200860704706494CF6CC400860A0
:102210007047044A01460020D2680A4200D00120DB
:102220007047000000300040B24A10B5811A131503
:1022300090421BD007DCB049401814D0984223D1FB
:102240000121040217E0994213D0B1F56C4F1BD164
:1022500001218C032046FFF7E5F92046BDE8104038
:102260000021FFF7DFB901214C0404E00121CC0477
:1022700001E001210C052046FFF7DDF92046BDE80D
:1022800010400021FFF7D7B910BD30B50446008AD1
:1022900085B00D464CF6FF710840E9880143218264
:1022A000A1894EF6F3100140A8882A8910436A8953
:1022B0000A431043A081A08A4FF6FF410840A98934
:1022C0000143A1826846FFF750F98C48844201D14E
:1022D000039800E00298642200EBC00101EB0010BB
:1022E00029686FF018058900B0FBF1F0B0FBF2F13E
:1022F00009010B096B4300EB8300322303EB001051
:10230000B0FBF2F000F00F000843208105B030BDB3
:102310004FF41651016000218180C18001810C229F
:1023200042818181704710B5028A4FF2FF031A4043
:102330000B884C8823438C88C9880C432343134360
:10234000038210BD0021018041808180C1807047DF
:102350000029818902D041F4005101E021F40051AB
:102360008181704710B5C1F3421301F01F040121B0
:10237000A140012B07D0022B07D01430002A02689D
:1023800005D00A4304E00C30F8E71030F6E78A4342
:10239000026010BD002A828A01D00A4300E08A430D
:1023A00082827047028A22F00F020282028A0A4366
:1023B00002827047828922F40062828182890A4304
:1023C000828170470029818902D041F0020101E039
:1023D00021F0020181817047028A22F020020282EC
:1023E000028A0A43028270470029018A02D041F41E
:1023F000804101E021F4804101827047C1F308016E
:10240000818070478088C0F308007047818941F05F
:10241000010181817047028BD2B20283028B42EAB2
:10242000012101837047028B02F47F420283028BF9
:102430000A43028370470029818A02D041F02001BB
:1024400001E021F02001818270470029818A02D0B9
:1024500041F0100101E021F0100181827047002954
:10246000818A02D041F0080101E021F00801818257
:102470007047828A22F004028282828A0A43828220
:1024800070470029818A02D041F0020101E021F069
:102490000201818270470246002012880A4200D061
:1024A00001207047C9430180704770B501F01F06D5
:1024B00001250024C1F3421305FA06F2012B0FD0C7
:1024C000022B0FD0838A4FEA11210088134205FAAC
:1024D00001F500EA050001D000B10124204670BDDD
:1024E0008389F0E7038AEEE70A0A01219140C94394
:1024F00001807047004C004000BCFFBF0038014025
:102500002549002008807047704770477047704722
:1025100070474FF080731360131FA2F124021860FC
:102520006FF00100D0614FF0123090614FF0033036
:1025300050614FF0023010614FF00130C2E90210DB
:102540004FF0113050604FF0103042F804094FF056
:1025500009301060A2F110004FF00831C1604FF057
:10256000073181604FF0063141604FF0053140F88E
:1025700004194FF0043101607047704770470649F5
:102580000888401C80B20880642803D3002008809B
:1025900002F048BD704700003C000020EFF31080BF
:1025A00072B6704780F31088704724484FF0FF01DF
:1025B0000170002080F309881D4801210170204826
:1025C0004FF08051016062B6FEE71D484FF0805128
:1025D000016070471A484FF0805101607047EFF377
:1025E000098028B1203880E8F00F12490968086096
:1025F00000B50A4880475DF804EB0B480B490A78A0
:1026000002700C480C490A680260106890E8F00FEC
:10261000203080F309884EF0040E70477B250008B7
:102620004729000842000020440000204500002007
:1026300047000020600000206800002022ED00E03C
:1026400004ED00E072B6704762B67047EFF3108099
:1026500072B6704780F3108870470000002204E0D3
:10266000491C521C00F8013BD2B20B78002BF7D169
:1026700000210170104670472DE9F04105460E46D5
:10268000140006D045B14EB1FF48807840B111200A
:1026900010E00020BDE8F08104200BE00C2009E0F0
:1026A0002878012808D0022806D0032804D004285E
:1026B00002D001201070ECE7FFF770FF074605F12C
:1026C00013013046FFF7CAFF05463846FFF76AFF99
:1026D000002020702846DDE70146002002E0491C6A
:1026E000401CC0B20A78002AF9D170472DE9F041A8
:1026F00005460E461400CDD02DB136B1E2488078A3
:1027000028B112200DE004200BE00C2009E028780D
:10271000012808D0022806D0032804D0042802D0BB
:1027200001201070B6E7FFF739FF07463046FFF784
:10273000D3FF0F2804D93846FFF734FF0B2008E0F9
:10274000314605F11300FFF789FF3846FFF72AFFEE
:10275000002020709EE77CB5CC4D002469462046C1
:1027600002F0BBF858B955F8241041B1012906D040
:10277000D1E9020200EB8200086401984864641CFD
:10278000E4B23F2CEAD97CBDBF4D02E0C82002F084
:1027900069F968780028F9D0642069690026B1FBDE
:1027A000F0F48046FFF7FAFEE969A961EF69EE618E
:1027B000FFF7F8FE54B1B7FBF4F0C0F1640040B28B
:1027C000002801DB287005E02E7003E02E70696997
:1027D000B1FBF8F4FFF79CFEFFF7BDFF642002F0A9
:1027E00041F9DFE7A84CFFF7D9FEE169491CE16137
:1027F000FFF7D8FEFFF78BFEF5E7002203E0491E46
:1028000000F8012B89B20029F9D1704730B587B0A3
:10281000FFF776FE9C4C00232363A370E3702372C2
:10282000E371E360E361A36163616370A37104F129
:1028300034011846401CC0B201F8013B0828F9D306
:1028400023716371A3624FF4C66191482362FFF75D
:10285000D4FF4FF480718D48FFF7CFFF8C480021E3
:1028600000F158023F25426180F8485080F8493015
:10287000491C58305832C9B21129F4D3436180F849
:10288000485080F849308248E36260624FF4B47186
:10289000A0F5CD60FFF7B1FF7E48002100F12402D2
:1028A00003704260C5740375491C2430243289B218
:1028B0000929F5D303704360C57403757548206119
:1028C00000F048FD00F04BFE01F097FB724801ACB0
:1028D0000323002280210FC44FF6FF7300933F2390
:1028E00000F5FE720021AFF2031001F01EFE05AAF2
:1028F0006AA13F2001F070FF6C4801AC0323002265
:1029000080210FC44FF6FE7300933E2300F5FE7244
:102910000021AFF28B1001F008FE05AA64A13E2051
:1029200001F05AFF02F0B7FB07B0BDE83040FFF7F7
:10293000EBBD5549C879012804D18878FF2801D218
:10294000401C8870704770B54F4CE079012822D147
:10295000FFF724FE0546A07820B1401E10F0FF00CE
:10296000A07013D1E07888B900F0FCF96079217982
:1029700088420BD0454951F82010A162486B401C99
:102980004863E068401CE060FFF724FE2846BDE88D
:102990007040FFF707BE70BD10B53B4CE0790128D1
:1029A0000CD1FFF7FBFDA17821B9E178FF2901D215
:1029B000491CE170BDE81040FFF7F4BD10BD70B5D3
:1029C000FFF7ECFD304C0546A07898B9E07888B95F
:1029D00000F0C8F96079217988420BD02B4951F871
:1029E0002010A162486B401C4863E068401CE06016
:1029F000FFF7EBFD2846BDE87040FFF7D3BD10B5EB
:102A0000214CE079012813D1FFF7C8FDE17831B1FD
:102A1000491E11F0FF01E17001D1A17819B1BDE8A3
:102A20001040FFF7BFBDFFF7BDFDBDE81040C6E792
:102A300010BD10B5144CE07900280CD100F092F9CB
:102A400060791249207151F82000A0622062BDE82F
:102A50001040FFF7AABD10BD10B5022002F002F829
:102A6000FFF79CFD084C0021E161FFF79BFD64200E
:102A700001F0F8FFFFF792FDE169616101216170EA
:102A8000BDE810401CE00000400000202023002092
:102A900020240020B81D00202021002075432F4F46
:102AA000532D49492049646C65000000201F002017
:102AB00075432F4F532D4949205374617400000012
:102AC000FFF770BD2DE9F041FFF759FDFFF766FDF7
:102AD000AA4D296B491C2963FFF764FDE879012899
:102AE00043D1687A01264FF0000828B101283CD074
:102AF000022803D085F80980EC6A32E06E72FBE7A9
:102B0000FFF74CFD618D49B3A1F101010904090CE6
:102B1000618523D194F82C1011F0370F06D021F0E5
:102B2000370184F82C1084F82D6001E084F82D80A2
:102B300094F82C10090711D404F13004AA79A17873
:102B400041EA0201A9718D4A217802F134026778C5
:102B5000535CA4F1300443EA070353546469FFF75C
:102B600021FD94F82E003F28CAD193E540F21D10B4
:102B700070477047F0B5847A814D4FF0010E2C5D9F
:102B800000EB040C0EFA04F69CF80B70F6B2ED5D47
:102B90000EFA05FE0EF0FF0E05EBC40537EA0E0730
:102BA000EDB28CF80B7002D1877AB7438772754803
:102BB000002750F8250000F11C00C781C0E9007112
:102BC0004374017C9143017408D16C48817931438D
:102BD00081713430015D41EA0E0101552846F0BD96
:102BE00070B5664C04F13405216AC86191F8302053
:102BF00091F83160AB5CB343AB5404D191F83230FF
:102C0000A2799A43A27111F8303F00F10B02497882
:102C10009D5C0D439D54226A817A92F832201143C3
:102C2000817270BD10B5554C226A12F8301F4318DE
:102C30005278D97A9143D97205D1226A817A92F871
:102C4000322091438172206A002100F11C004174FE
:102C50000174016010BD002282720B301146491CC4
:102C6000C9B200F8012B0829F9D3704705E011F823
:102C7000013B521E00F8013B92B2002AF7D1704787
:102C80002DE9FF5F0646DDE90EBA0D4690469946EE
:102C9000FFF784FC394F7C6AF4B354F8141F79624F
:102CA000FFF780FC44F8145CA6760025257665764F
:102CB000E582A4F10C0044F810ACA0E800091098DB
:102CC00024F8040C24F8029CE577F0082077012111
:102CD00001FA00F0A07706F00700E0768140617706
:102CE000A5602561E5602562A5626562E5623F2019
:102CF000256384F8340084F83550A4F11404204688
:102D0000FFF73CFC2046FFF700FCFFF747FC0146BD
:102D10001C4840F8264000E020E0F86AC4E90505B8
:102D200000B18461FC6204F13004BA79A078134BDD
:102D300040EA0200B871207803F1340364781A5C29
:102D400042EA04021A54387A00F101003872084647
:102D5000FFF728FC002004B0BDE8F09FFFF722FC3D
:102D60004220F8E7054A064902F134039079085CED
:102D70001B5CC95C01EBC000507170474000002033
:102D800058520008202300202DE9F04105460F4647
:102D900014461E0005D03DB12878052806D0012034
:102DA00018700020BDE8F0816E20F9E714F0800073
:102DB00002D022F080040120804600203070FFF70E
:102DC000EDFB7021FCB1012C23D0022C08D0032C88
:102DD00011D0FFF7E7FB00246F2030702046E1E7B9
:102DE0002C8922463C40BC4209D01CE0A24318E09A
:102DF000FFF7D8FBF2E72C8922463C4013D0B8F10C
:102E0000010FF5D1F2E72A8927EA0204BC4204D077
:102E100009E02A8937EA020405D0B8F1010FE7D1A9
:102E200022432A81E4E73170E2E770B506460D00DF
:102E300004D0FC48007818B110200870002070BD44
:102E4000FFF7ACFBF8490C686CB162680A600521B9
:102E50002170268100263F216660A172E672FFF78D
:102E6000A1FB2E7003E0FFF79DFB72202870204627
:102E700070BDD0E9001200232AB1116001B14A608F
:102E8000806843627047C26800295160F8D04B6087
:102E9000F6E710B502468068002300F12800438061
:102EA0000180017931F0200101714371A0F1280006
:102EB00005D000241046FFF7DCFF204610BDDB499B
:102EC00000F1300083780C7843EA04030B7001783A
:102ED000D74B40785C5C44EA00045C544FF001043A
:102EE000E8E72DE9F05F8946044615002CD02CB1A7
:102EF000CC48007820B10F20107024E06E20FBE752
:102F00002078052801D00120F6E7FFF747FB666827
:102F100080460EB1012700E000275FEA0900DFF8D4
:102F200008B34FF03F094FF0000A06D0012824D023
:102F30004046FFF737FB072004E03FB14046FFF76C
:102F400031FB492028702046BDE8F09F84F80A90A4
:102F500084F80BA084F800A0DBF800106160A4F8EE
:102F600008A056464046CBF80040FFF71BFB1BE08D
:102F700000213046FFF78DFF3668002EF8D184F827
:102F80000A9084F80BA084F800A0DBF800106160C0
:102F9000A4F808A056464046CBF80040FFF702FBD5
:102FA000012F01D1FFF70BFD2E700020CCE72DE99A
:102FB000F04105460F46140016D02DB137B199489F
:102FC000007830B1112002E06E2000E00C2010707B
:102FD0000AE0FFF7E3FA06462878052806D03046CF
:102FE000FFF7E0FA012020700020DBE605F10A017E
:102FF0003846FFF733FB05463046FFF7D3FA00208B
:1030000020702846CEE62DE9F04105460F46140013
:1030100006D035B13FB18348007830B1122010702E
:10302000C0E66E20FBE70C20F9E7FFF7B7FA06468B
:103030002878052804D03046FFF7B4FA012012E0C2
:103040003846FFF749FB0F2804D93046FFF7AAFAA4
:10305000732008E0394605F10A00FFF7FFFA304611
:10306000FFF7A0FA002020709CE6F0B5714E059F96
:10307000346804F12404257A45F0200525724FF0C8
:1030800000056572E78044F824190A828B748C600D
:103090004268C860C1E90025426802B151604160E0
:1030A0003068634B90F8301090F831405A5CA2437E
:1030B0005A5405D190F832205C4801789143017050
:1030C000F0BD2DE9FF4F87B00446149D0F46914691
:1030D0002DB144B15348007838B10220A0E000205F
:1030E0000BB0BDE8F08F6E209AE05348007808B12D
:1030F0000D2095E02078052801D0012090E012F005
:10310000800F03D029F08009012600E00026FFF798
:1031100045FA0690DFF81CB15FEA09004FF0000A9B
:1031200030D001283AD0022808D0B9F1030F15D0C9
:103130000698FFF737FA00206F215EE0208900EA49
:1031400007018846B9422FD1012E02D120EA08009A
:1031500022E00846DBF8001008850CE0208910EA20
:10316000070821D0012E02D120EA08002081DBF8D7
:103170000000A0F828800698FFF714FA85F800A050
:103180004046ADE7208927EA00018846B9420BD1C5
:10319000012EDED140EA08002081DAE7208927EA03
:1031A00000015FEA0108F3D10A9B00934B463A46BF
:1031B00001A92046FFF759FF0698FFF7F3F9FFF73B
:1031C000FEFBFFF7EBF98446DBF80000D84690F8E9
:1031D0002D70A7B180F82DA0544601A8FFF749FE35
:1031E000D8F8000080F82C406046FFF7DBF900209B
:1031F000022F01D00A2100E00E21297070E7078D0F
:10320000012E21D15FEA09001BD0012819D0022824
:1032100014D0B9F1030F11D06046FFF7C3F96F2046
:1032200028705CE7420000207C000020460000205F
:103230007400002060000020430000202089B84373
:1032400001E02089384320816046FFF7ABF985F81B
:1032500000A0384644E710B5FFF7A0F94C490968CB
:103260000C8DFFF79FF9204610BD2DE9F041054672
:103270000E4614461F0028D02DB12878052804D00A
:103280000120187021E06E20FBE7FFF787F98046E8
:103290002CB1012C06D0FFF785F9712014E02889A4
:1032A000B04301E028893043288100266C6828E07B
:1032B000A07CA0B1012819D0022808D003280AD088
:1032C0004046FFF76FF96F20387000206AE52989C2
:1032D000208A014007E02989208A014009E0218AEB
:1032E0002A8908469143884204D009E0218A288926
:1032F000814329B12046FFF7CCFD012800D10126EA
:103300002468002CD4D14046FFF74CF9012E01D19E
:10331000FFF755FBFFF742F92C89FFF743F900202F
:10332000387020463EE570B505460C0005D035B135
:103330002878052805D001200870002070BD6E2077
:10334000FAE7FFF72BF92D89FFF72CF90020207001
:10335000284670BD10B58C210E48FFF74EFA0D4877
:10336000002100F11C020B463F240370426084726E
:10337000C372491C1C301C3289B20429F5D3037076
:10338000436084720449C3720248086010BD0000A3
:1033900060000020502A00207C0000202DE9F04130
:1033A0000646884617461D0020D062200EB1B107A0
:1033B00001D018701AE0B8F1020F01D25B20F8E7D3
:1033C000042F01D25C20F4E7FFF7E8F872490C689B
:1033D0000CB162680A60FFF7E5F82CB1F0193246CB
:1033E0000021A8F1010308E05A2028700020BDE860
:1033F000F081106002463844491C9942F9D30020FC
:1034000010602660C4F810806660C4E902782870F5
:1034100041462046EBE770B504460D0016D074B166
:10342000FFF7BCF8216969B16668491E32686260BD
:103430002161FFF7B7F800202870304670BD60208A
:10344000087003E0FFF7AEF85D202870002070BD23
:103450002DE9F04105460E46140006D03DB146B1B7
:103460004E48007838B1112010700020BFE760206E
:10347000FAE70C20F8E7FFF791F8074605F1140189
:103480003046FFF7EBF805463846FFF78BF800208B
:1034900020702846ABE72DE9F04105460E461400A2
:1034A000A5D035B13EB13D48007830B11220107042
:1034B0009DE76020FBE70C20F9E7FFF76FF8074670
:1034C0003046FFF709F90F2804D93846FFF76AF8A4
:1034D000632008E0314605F11400FFF7BFF83846D5
:1034E000FFF760F80020207081E770B504000D46FA
:1034F0000AD05DB1FFF752F8D4E903128A4207D32C
:10350000FFF750F85E2070BD602070BD5F2070BD79
:103510006168296065602169491C2161FFF742F8F3
:10352000002070BD70B505000C4614D0ACB1FFF79B
:1035300035F82968216069686160A968A160E96857
:10354000E16029692161FFF72DF8D4E90301401AF0
:103550006061002070BD602070BD612070BD70B5DD
:10356000B4210F48FFF749F90D48002103460A46E8
:103570003F2401EBC10503EB850524354560047547
:103580004275491C243089B20429F2D34260047583
:1035900042750148036070BD800000204200002099
:1035A000DC2A00202DE9F04105460C001AD02DB18F
:1035B0002878042804D00120087013E00420FBE7D9
:1035C000F848007808B10220F6E7FEF7E7FF2989FE
:1035D0004FF000060B0ACA4312F0FF0F05D0FEF7AA
:1035E000E1FF26700020BDE8F08101F47F42EE4942
:1035F0002A81096891F82E703A432A81696091F80E
:103600002E10994204D8FEF7CDFF7820207002E0FA
:10361000FEF7C8FF26700120E5E72DE9F0410646D8
:103620000D0013D03F2E01D32A2003E0DD4800789F
:1036300010B11020087009E0FEF7B0FFDB4951F827
:1036400026202AB1FEF7AEFF282028700020CAE706
:10365000012241F82620D64A4FF0000804271468BA
:10366000ACB161681160FEF79DFFFF2040EA0620C3
:10367000277020813F20C4F80480E074464684F817
:1036800014802046FFF7E7FA2E702046ABE7444649
:1036900041F82680FEF786FF2F70F6E7F0B590F828
:1036A0003020C44E90F83140C34FB35CA343B354B1
:1036B00004D190F832303A789A433A70C1F3C2029A
:1036C00000F82E1F01F007040125827005FA02F3AD
:1036D00044700371A540C5703C78A0F12E0043EA08
:1036E00004033B70B35C43EA0503B354AF4A42F8AA
:1036F0002100F0BD2DE9F05F8846044615002ED06C
:103700002CB12078042804D00120107026E0042079
:10371000FBE7A448007808B10F20F6E7FEF73EFF6C
:103720000746A07A08B1012600E000265FEA0800FB
:10373000DFF878A2DFF878B24FF03F094FF00008C9
:1037400006D0012824D03846FEF72CFF072004E0DD
:103750003EB13846FEF726FF492028702046BDE8D6
:10376000F09F84F8139084F8148020894646000A5C
:103770004AF8208084F80080DBF800106160A4F82B
:1037800008803846CBF80040FEF70CFF2E702EE084
:103790002089020AC1B2606860B190F82E3093426D
:1037A00008D1FFF77BFF05E00023102219462046D1
:1037B000FFF7E0F9A07A0028F6D184F8139084F896
:1037C000148021893846090A4AF8218084F800804B
:1037D000DBF800206260A4F80880CBF80040FEF718
:1037E000E1FE012E01D1FFF7EAF885F80080002004
:1037F000B5E72DE9F74F0546140011D025B128781B
:10380000042803D001200AE0042008E0654800787D
:1038100008B1022003E06948007818B10D2010704B
:10382000BDE8FE8FFEF7BAFE29898046080ACA4322
:10383000DFF8749112F0FF0F1DD0CAB2696891F8D9
:103840002E3083426ED9D9F8003093F82E3093424F
:1038500068D291F83020DFF85CA191F83130DFF8C0
:1038600058B11AF8026037461E4224D09F430AF826
:10387000027017D01DE001F47F422A81D9F80010B0
:1038800091F82E301A432A81696091F82E108142F6
:10389000404603D8FEF786FE78207AE0FEF782FEE7
:1038A000002076E091F832609BF80030B3438BF84B
:1038B0000030012310E0CE696EB106F10B0712F85B
:1038C00007C03CEA030C02F807C004D1B27A91F8B1
:1038D00032309A43B2720023C208012600F0070773
:1038E00006FA02FC01F82E0FBE408A704F700CF0F1
:1038F000FF0C81F804C0F6B2CE70A1F12E01012BAD
:103900003AD0CA695AB1937A43EA0C03937291F898
:1039100030300B3291F831709E5C3E439E54234A06
:1039200042F82010D9F800004FF0000700F12A00FB
:10393000817841F010018170C7700199018028469B
:10394000FFF74EF94046FEF72DFEFFF738F8FEF779
:1039500025FE0646D9F8000090F82D80B8F1000F3A
:1039600019D02846FFF75EF93046FEF71BFEB8F186
:10397000020F0DD00A200CE09BF800304CEA030C3B
:103980008BF800C01AF8027037430AF80270C6E7D5
:103990000E20207044E7C7613046FEF703FE277013
:1039A0003EE70000420000206000002020230020AD
:1039B000500000207400002046000020430000203A
:1039C0002DE9F04104464148007808B105200AE697
:1039D00024B12078042803D0012004E6042002E664
:1039E000FEF7DCFD064620896268050AC1B2384848
:1039F0000068824204D03046FEF7D4FD6420F2E530
:103A000090F82E20AA4201D1FFF748FE314F012045
:103A100047F82500A07AE0B100231022194620467D
:103A2000FFF7A8F8218901F47F410143218157F86C
:103A30002010A8426160304605D8FEF7B3FDFEF7BE
:103A4000BEFF7820CFE5FEF7ADFDFEF7B8FF002002
:103A5000C9E5208940F0FF002081002060603046E9
:103A6000FEF7A0FDF3E770B5054618480C46007850
:103A700008B1062070BD2DB134B12878042805D0D6
:103A8000012070BD042070BD092070BDFEF786FDC9
:103A900001462889000AE0722889C0B2A072FF2876
:103AA00012D000206072A87A20720B350020401CD2
:103AB00015F8012BC0B204F8012B0828F7D30846EB
:103AC000FEF770FD002070BD0120EBE742000020F2
:103AD000600000202023002070B505460C0005D0B2
:103AE00035B12878022805D001200870002070BD6B
:103AF0000420FAE7FEF752FD6A680346D08A70B1E7
:103B00001169081D10610D68D18A491ED182916822
:103B1000884201D1506810610020207002E01F200F
:103B2000207000251846FEF73DFD284670BD2DE9A2
:103B3000F0410646F9488846007810B10020BDE8FB
:103B4000F081FEF72BFDF64F3C680CB161683960DF
:103B5000FEF728FD1CB3FEF721FDF2490D68C5B143
:103B60002A680A60FEF71EFD06EB8800C5E90160C1
:103B7000EE602E61A5F814800020E88202212170F9
:103B800020813F216560E17420752046FFF763F8CE
:103B900005E0396861603C60FEF704FD00242046C2
:103BA000CDE72DE9F05F8846044615002ED02CB1F4
:103BB0002078022804D00120107026E00420FBE7C2
:103BC000D648007808B10F20F6E7FEF7E7FC074675
:103BD000A07A08B1012600E000265FEA0800DFF8BD
:103BE00044B3DFF83C934FF03F0A4FF0000806D093
:103BF00001282CD03846FEF7D5FC072004E03EB162
:103C00003846FEF7CFFC492028702046BDE8F09FDB
:103C100084F813A084F814806068DBF8002046461E
:103C20000260CBF8000084F80080D9F800106160D1
:103C3000A4F808803846C9F80040FEF7B3FC2E709F
:103C400024E00023042219462046FEF793FFA07AC1
:103C50000028F6D184F813A084F814806068DBF89B
:103C600000200260CBF8000084F80080D9F8002022
:103C70006260A4F808803846C9F80040FEF792FC5C
:103C8000012E01D1FEF79BFE85F800800020BDE7E4
:103C900010B5040004D02078022803D0012010BD04
:103CA000042010BDFEF77AFC014660684268C260DD
:103CB00002610022C2820846FEF774FC002010BD9B
:103CC0002DE9F04705468946140057D02DB12878D4
:103CD000022804D00120107050E00420FBE78F4838
:103CE000007808B10220F6E78F48007808B10D206F
:103CF000F1E7FEF753FC064668680027C18A91B1D8
:103D00000269111D01611568C28A521EC282826851
:103D1000914201D1416801613046FEF743FC2770B2
:103D20002846BDE8F087DFF80482D8F8000010F8D4
:103D30002C1F41F004010170477020F8029C2846B6
:103D4000FEF74EFF3046FEF72DFCFEF738FEFEF77D
:103D500025FC0646D8F8000090F82D80B8F1000F39
:103D60000ED02846FEF75EFF3046FEF71BFCB8F18A
:103D7000020F01D00A2000E00E2020700020D0E7C2
:103D8000056A076280F82C70C761C5E72DE9F0412C
:103D900006460F46150031D02EB131780120022998
:103DA00003D010702AE00420FBE7FEF7F7FB804603
:103DB000B07AF0B10024012F0FD002230422002199
:103DC0003046FEF7D7FE01244046FEF7EBFBFEF738
:103DD000F6FD0E2028702046B1E6022304220021C1
:103DE0003046FEF7C7FE641CB07AE4B20028F4D176
:103DF000EAE74046FEF7D6FB0020287000209EE64A
:103E000070B504000E4604D02078022803D00120AB
:103E100070BD042070BDFEF7C1FB0546A07A58B105
:103E20000023042231462046FEF7A4FE2846FEF772
:103E3000B9FBFEF7C4FD19E06068C18A828A91422D
:103E400004D32846FEF7AEFB1E2070BDC1680A1DD4
:103E5000C2600E60C18A491CC182D0E902128A4246
:103E600001D14168C1602846FEF79CFB002070BD6F
:103E700070B504000E4604D02078022803D001203B
:103E800070BD042070BDFEF789FB0546A07A58B1CD
:103E90000023042231462046FEF76CFE2846FEF73A
:103EA00081FBFEF78CFD18E06068C18A828A91422E
:103EB00004D32846FEF776FB1E2070BD42680169D8
:103EC000914201D181680161091F01610E60C18ABF
:103ED000491CC1822846FEF765FB002070BD2DE914
:103EE000F04107000D46144604D03878022803D06C
:103EF000012024E6042022E6FEF750FB0646B87AAD
:103F000028B3E00714D00023042229463846FEF7E0
:103F100031FEB87A0028F6D110E0000042000020FF
:103F2000500000208400002043000020600000209A
:103F30000023042229463846FEF71CFE3046FEF7D1
:103F400031FB600701D4FEF73AFD0020F7E57B68FE
:103F5000D88A998A884204D33046FEF723FB1E2074
:103F6000EDE5A00709D559681869884201D198681C
:103F70001861001F1861056009E0D868011DD9604B
:103F80000560D3E90201814201D15868D860D88A1E
:103F9000401CD8823046FEF705FBD6E770B5060018
:103FA0000D4605D035B13078022805D0012070BD0E
:103FB000042070BD092070BDFEF7F0FA0246B07A09
:103FC000287406F10B0405F108010020401C14F8C8
:103FD000013BC0B201F8013B0828F7D37068C18AE1
:103FE00009B1016909682960C18AA980808AE880CD
:103FF0001046FEF7D7FA002070BD10B560210A48C0
:10400000FEF7FBFB0848002100F1180240F8182BCE
:10401000491C183289B20329F8D3002101600349F1
:104020000148086010BD0000902B00208400002093
:1040300070B5040002D02078032801D0002070BDA4
:10404000FEF7ACFA25890DB1691E2181FEF7AAFAA7
:10405000284670BD70B50546C248007808B10020FA
:1040600070BDFEF79BFAC0490C680CB162680A602B
:10407000FEF798FA54B103202070258100203F21DB
:104080006060E17420752046FEF7E5FD204670BDB6
:104090002DE9F0478846044615002CD02CB1207835
:1040A000032804D00120107024E00420FBE7AD4871
:1040B000007808B10F20F6E7FEF770FA0746A07AFD
:1040C00008B1012600E000265FEA0800DFF89892B8
:1040D0004FF03F084FF0000A06D0012826D038469E
:1040E000FEF760FA072004E03EB13846FEF75AFAC0
:1040F000492028702046BDE8F08784F8138084F8B2
:1041000014A084F800A0D9F800106160A4F808A0F9
:1041100056463846C9F80040FEF744FA2E701FE0B4
:104120000023012219462046FEF724FDA07A00282C
:10413000F6D184F8138084F814A084F800A0D9F88C
:1041400000206260A4F808A0D0463846C9F80040B4
:10415000FEF728FA012E01D1FEF731FC85F8008028
:104160000020C8E72DE9F047054689461400C2D073
:1041700025B12878032803D001200AE0042008E0B4
:104180007848007808B1022003E07848007810B140
:104190000D201070AFE7FEF701FA064628890027C8
:1041A00010B1401E28812CE0DFF8C481D8F800004F
:1041B00010F82C1F41F001010170477020F8029C9B
:1041C0002846FEF70DFD3046FEF7ECF9FEF7F7FB4B
:1041D000FEF7E4F90646D8F8000090F82D80B8F113
:1041E000000F0DD02846FEF71DFD3046FEF7DAF928
:1041F000B8F1020F01D00A2000E00E2020707AE70B
:10420000C7613046FEF7CEF9277074E72DE9F0411B
:1042100006460F46150032D02EB131780120032911
:1042200003D010702BE00420FBE7FEF7B7F98046BF
:10423000B07AF8B10024012F10D00223012200210E
:104240003046FEF797FC01244046FEF7ABF9FEF737
:10425000B6FB0E2028702046BDE8F0810223012223
:1042600000213046FEF786FC641CB07AE4B20028D8
:10427000F4D1E9E74046FEF795F9002028700020C8
:10428000EAE770B5040004D02078032803D00120A9
:1042900070BD042070BDFEF781F90546A07A58B1C3
:1042A0000023012219462046FEF764FC2846FEF74B
:1042B00079F9FEF784FB09E020894FF6FF71884207
:1042C00006D2401C20812846FEF76CF9002070BD04
:1042D0002846FEF767F9322070BD2DE9F04106004F
:1042E0000F4605D037B13078032805D00120B3E759
:1042F0000420B1E70920AFE7FEF750F90146B07A94
:10430000B872BC1C06F10B050020401C15F8012BEF
:10431000C0B204F8012B0828F7D33089388008464A
:10432000FEF740F9002097E770B504460E461500E9
:1043300005D02CB12078032804D00120107070BD66
:104340000420FBE7FEF72AF900212970218939B9F9
:10435000A17A29B149212970BDE87040FEF722B940
:104360002681F9E742000020500000204300002091
:10437000600000202DE9F04705460C463F2801D398
:10438000FF2D01D13F2C02D32A20BDE8F087FEF794
:1043900005F9DFF810C403465CF8240020B1184684
:1043A000FEF700F92820F0E7FF2D03D1FE48006852
:1043B00090F82E505CF8252012B3012A25D0E10890
:1043C000012004F0070A00FA01F600FA0AF000F0F2
:1043D000FF0900204CF825004CF8242092F83050BA
:1043E000DFF8C88392F83100F6B218F8057007427A
:1043F00022D08743DFF8B8C308F805700AD010E070
:104400001846FEF7CFF82920BFE71846FEF7CAF88E
:104410004320BAE792F832709CF80000B8438CF859
:1044200000009CF8000030438CF8000018F80100F0
:1044300040EA090008F80100D069B0B100EB050CB2
:1044400092F831709CF80B50BD438CF80B5004D19E
:10445000857A92F83270BD438572857A35438572CC
:104460000844C57A45EA0905C57202F82E4F184678
:10447000917082F801A0167182F80390FEF792F80D
:10448000CC480078012801D1FEF799FA00207CE79A
:104490002DE9FE4306460F4690461C463F2B02D9A7
:1044A0002A20BDE8FE83FEF779F8C349097819B1DF
:1044B000FEF778F83C20F4E7BA4D55F8241019B10E
:1044C000FEF770F82820ECE7012145F82410FEF7EC
:1044D00069F80023424639463046FEF71AF80023B1
:1044E0001A4619468DE80E0001462046FEF7C8FB25
:1044F000060008D0FEF752F8002145F82410FEF718
:1045000051F83046CDE7AB4800780128F9D1FEF7E5
:1045100056FAF6E7D30707D0920705D500220029FF
:1045200002D004C0491EFAE770472DE9FF4F83B05F
:104530008046DDE910B6149F894692461C463F2B03
:1045400003D92A2007B0BDE8F08FFEF727F89A4973
:10455000097819B1FEF726F83C20F3E7914D55F89C
:10456000241019B1FEF71EF82820EBE7012145F8C9
:104570002410FEF717F83A4630461299FFF7CAFFA3
:104580003B46524649464046FDF7C3FFDDE912125D
:104590008DE8860001465B4632462046FEF770FBFA
:1045A000060008D0FDF7FAFF002145F82410FDF7BA
:1045B000F9FF3046C6E77F4800780128F9D1FEF7B9
:1045C000FEF9F6E72DE9F04705467B48007808B18B
:1045D0004020DAE63F2D04D005D3FF2D03D02A205A
:1045E000D3E63E20D1E6FDF7D9FF0646FF2D03D1E5
:1045F0006D48006890F82E50DFF8A89159F82540D2
:104600005CB1012C0ED094F83010684A94F8313027
:10461000505C984350540AD00FE03046FDF7C2FF7B
:104620004320B2E63046FDF7BDFF3D20ADE66048D1
:1046300094F8323002789A430270E06958B1421817
:1046400094F83130D17A9943D17204D1817A94F8B7
:10465000322091438172606A08B1FEF70AFC4FF084
:104660000008A4F82A80554F84F82C8084F82D8007
:104670003878FF2801D2401C38703046FDF792FF91
:10468000FEF777FAFDF78AFF0646387808B1401E34
:1046900038702046FDF73AFF49490878401E0870F7
:1046A00049F82580A0694146A0B162694261D4E918
:1046B0000502826143480268626104603F2004F899
:1046C000480F30466170FDF76DFF3A4800780128C9
:1046D00006D007E060693C4A816160691060E9E7E3
:1046E000FEF76DF9002050E610B504463F2804D0CF
:1046F0000FD3FF2803D02A2010BD3E2010BDFDF7A8
:104700004DFF2949096891F83340FDF74BFF2046DA
:1047100010BDFDF743FF234951F8241041B1012991
:104720000AD03F2281F83320FDF73CFF002010BD66
:10473000FDF738FF432010BDFDF734FF3D2010BDCD
:104740002DE9F04105460F46140043D03F2D03D913
:10475000FF2D01D02A2006E027B11748007820B1AC
:10476000112000E00C20107034E0FDF717FF064622
:10477000FF2D03D10C48006890F82E50094850F8DE
:104780002510432511B3012920D048313846FDF7C3
:1047900065FF05463046FDF705FF002020702846DE
:1047A000BDE8F0812023002060000020740000207C
:1047B0004600002047000020420000204300002067
:1047C00048000020640000206C0000203046FDF707
:1047D000E9FE25700020E3E72DE9F0410546884613
:1047E0001400DDD03F2D03D9FF2D01D02A2004E095
:1047F00029B19648007820B112201070D0E70C2023
:10480000FBE7FDF7CBFE0646FF2D03D1904800687D
:1048100090F82E508F48432750F825505DB1012D58
:1048200009D04046FDF758FF0F2809D93046FDF75B
:10483000B9FE41200DE03046FDF7B4FE2770AFE72A
:10484000414605F14800FDF709FF3046FDF7AAFE95
:1048500000202070A4E710B504463F2801D32A2089
:1048600010BDFDF79BFE7B4951F8241059B1012979
:104870000DD091F82C2013072BD532F0080281F8C7
:104880002C2008D009E0FDF78DFE462010BDFDF775
:1048900089FE432010BD4A8D1AB1FDF783FE00202A
:1048A00010BD6D4A01F130018B78147843EA04039E
:1048B00013700A78694C4978A35C43EA0103A35456
:1048C000FDF770FE664800780128E8D1FEF777F81A
:1048D000E5E7FDF767FE442010BD2DE9F0410446F1
:1048E0000E463F2803D9FF2C01D02A2058E746B1B5
:1048F000002030607060FDF751FE0146FF2C02D0B1
:1049000005E009204CE75248006890F82E405148D5
:1049100050F8240058B1012809D0028AD2070BD0E0
:10492000D0E9025700240846FDF73CFE0AE008469D
:10493000FDF738FE432033E70846FDF733FE4520F8
:104940002EE7641C01CD0028FBD0A0003060381B8E
:1049500080007060002023E770B504463F2804D033
:1049600005D3FF2C03D02A2070BD472070BDFDF772
:1049700015FE01463648FF2C006805D090F82E0041
:10498000A04204D1012503E090F82E40FAE700256B
:10499000304850F8240058B101280ED090F830204B
:1049A0002E4C90F83160A35CB343A3540AD00FE0BF
:1049B0000846FDF7F7FD482070BD0846FDF7F2FDFB
:1049C000432070BD244A90F832401378A3431370FB
:1049D00010F82C2F42F0080202700846FDF7E2FDA5
:1049E000012D01D1FDF7EBFF002070BD70B504462D
:1049F0000E463F2803D9FF2C01D02A2070BD2EB1CE
:104A0000FDF7CCFD0546FF2C02D005E0092070BD66
:104A10000F48006890F82E400E4850F8241051B10D
:104A200001290DD058223046FEF720F92846FDF71F
:104A3000B9FD002070BD2846FDF7B4FD292070BDEA
:104A40002846FDF7AFFD432070BD00004200002066
:104A50006000002020230020460000207400002079
:104A60004700002070B504465D48007800281DD13D
:104A7000002C1BD0FDF792FD03465A485A4D0168A1
:104A800091F8302091F83160A85CB043A85405D16A
:104A9000564891F832500278AA4302704C85184665
:104AA000FDF780FDBDE87040FDF789BF70BD70B5B2
:104AB0004B4C24780CB1552070BD00B919B13B297D
:104AC00002D9512070BD1AB13B2A02D9522070BDC3
:104AD0002BB14FF47A74A34203D3532070BD5420FA
:104AE00070BD4FF47A756B43B3FBF4F34FF461641C
:104AF0006043C1EB011100EB8100104400EB400169
:104B0000C1EBC01003EBC000040C80B2FFF7AAFF9A
:104B10004FF4004507E02846FFF7A4FF2846FFF7BB
:104B2000A1FF641EA4B2002CF5D1002070BD10B509
:104B300004463F2801D32A2010BDFDF72FFD2C4944
:104B400051F8241091B1012910D04A8D92B100235F
:104B50004B8591F82C2012F0370F0FD022F037023E
:104B600081F82C20012281F82D2009E0FDF71AFDA3
:104B7000432010BDFDF716FD502010BD81F82D30EB
:104B800091F82C20120713D4184A01F130018B78C8
:104B9000147843EA040313700A78134B49789C5C39
:104BA00044EA01049C54FDF7FDFCFDF708FF01E019
:104BB000FDF7F8FC002010BD10B5FDF7EFFC0D4926
:104BC0000C68FDF7EFFC204610BD10B50446FDF75C
:104BD000E5FC08490C60BDE81040FDF7E3BC0000AF
:104BE00042000020600000207400002046000020E9
:104BF00020230020700000202DE9FF5F0746DDE93B
:104C00000FA5884691469B462DB1012A0AD0022A5B
:104C100005D0842041E0002004B0BDE8F09F11B928
:104C200083203AE027B1F948007818B18B2034E0AE
:104C3000822032E000F090FAF548002604683CB388
:104C4000E1680160F349E66026610888401C08803D
:104C5000F1490888401E0880E4B1012084F8310041
:104C6000C4E9067884F83090C4F804B00E98A060C7
:104C70005FEA0A0008D0FDF72FFD10280FD2514639
:104C800004F12000FDF7EAFC00F062FA2E700FE05C
:104C90003446E1E700F05CFA86202870BBE7232069
:104CA00084F8200084F821608C20287000F050FAED
:104CB0002046B1E7002180F8311080F83010C16142
:104CC000416141603F22816080F8202080F82110FE
:104CD0000161CF490A68C2600860CE480188491E58
:104CE0000180CD480188491C0180704710B5416999
:104CF000CA4A01F0070102EBC10100240B68C26837
:104D0000834203D10A602AB1146103E00369DA60C7
:104D100002B11361012280F83120C46004618888E7
:104D2000401E888010BD70B505460C002CD02DB1FA
:104D30002878642804D08920087025E08A20FBE7C1
:104D4000B248007808B18B20F6E700F005FA95F834
:104D50003110A9B1002601290AD0022908D003295F
:104D600003D000F0F5F98D200DE02846FFF7BEFFD7
:104D70002846FFF79FFF00F0EBF92670012070BD79
:104D800000F0E6F987202070002070BD70B5054660
:104D90000E4614002FD02EB135B12878642806D0E5
:104DA000892002E0882000E08A20107023E09748E4
:104DB000007808B11120F8E700F0CEF995F831003D
:104DC000A8B1012807D0022805D0032803D000F09D
:104DD000BFF98D200EE005F120013046FDF73EFCC5
:104DE000054600F0B5F900212170284670BD00F09D
:104DF000AFF987202070002070BD2DE9F0410546F5
:104E00000C003BD02DB12878642804D0892008708C
:104E100034E08A20FBE77D48007808B18B20F6E774
:104E200000F09AF995F8310020B30026012811D03E
:104E300002281BD0032803D000F08AF98D201CE043
:104E4000774968690968451A00F082F92670284692
:104E5000BDE8F08195F83000AF69022801D107B9AB
:104E6000EF6900F075F926703846F1E700F070F947
:104E7000267003E000F06CF9872020700020E7E73F
:104E800070B505460C0005D035B12878642805D0EA
:104E9000892007E0002070BD8A2003E05B4800788D
:104EA00010B18B200870F5E700F056F995F83150F5
:104EB0003DB1012D05D0022D03D0032D01D08D2051
:104EC00000E00020207000F043F9284670BD032266
:104ED00080F83120524A0129126813D0816989B1C2
:104EE000114441614D4A01F0070102EBC101002369
:104EF0000A68086042B1C26010618A88521C8A80C8
:104F000003617047C169EBE70122C360F7E770B541
:104F100005460C002DD02DB12878642804D08920B6
:104F2000087026E08A20FBE73848007808B18B201B
:104F3000F6E700F011F995F83110B1B1002601291A
:104F40000AD0022908D0032903D000F001F98D20EE
:104F50000EE02846FFF7CAFE00212846FFF7B7FFFC
:104F600000F0F6F82670012070BD00F0F1F88720FF
:104F70002070002070BD2DE9F04105460E46174611
:104F80001C0041D02DB12878642804D089201870E5
:104F90003AE08A20FBE71D48007808B18B20F6E74D
:104FA00000F0DAF895F8310050B3012823D0022838
:104FB00021D0032803D000F0CBF88D2023E0284631
:104FC000FFF794FE002020708EB18F20032E03D0B7
:104FD000042E05D0842009E06A683AB1A96802E08D
:104FE0006A681AB139462846904700E0207000F000
:104FF000AFF801202CE700F0ABF88E202070F8E726
:1050000000F0A6F887202070002021E74200002051
:10501000980000208A000020880000203031002005
:105020008C00002050480068FFF72BB908B5DFF866
:105030003881DFF838914E4E6A460021D8F80000DA
:10504000FFF790F800F088F83068401C306000F0FE
:105050000700022759F8304013E060693168E568BD
:1050600088420DD1626812B12046A168904720465F
:10507000FFF73CFE94F83000022807D084F8317026
:105080002C46002CE9D100F063F8D5E70121204639
:10509000FFF71DFFF4E730B587B04FF45071354886
:1050A000FDF7ABFB40213148FDF7A7FB314800215C
:1050B000642400F134020B463F25047080F831303F
:1050C000C26080F8205080F82130491C34303432DE
:1050D00089B20F29F1D3047080F83130C36080F8B1
:1050E000205080F821302248244903602248038060
:1050F0001020088022491F4808600120FEF7AAFFFF
:10510000204D28600020FEF7A5FF174C05AA1EA120
:1051100020602868FDF7EAFA05AA1EA12068FDF7BD
:10512000E5FA1F4801AC0323002280210FC44FF68B
:10513000FD73009300F5FE723D2300211948FFF72F
:10514000F4F906AA18A13D20FFF746FB07B030BDD1
:105150000C480068FFF795B808B50A486A46002170
:105160000068FEF7FFFF08BD9400002030310020EA
:105170008C000020F02B00208A00002088000020F6
:1051800098000020900000204F532D546D724C6FFA
:10519000636B00004F532D546D725369670000001C
:1051A000302F00202D50000875432F4F532D4949B3
:1051B00020546D72000000007047704770477546BC
:1051C00000F028F8AE4605006946534620F0070077
:1051D000854618B020B5FBF72DF8BDE820404FF00C
:1051E00000064FF000074FF000084FF0000B21F0D1
:1051F0000701AC46ACE8C009ACE8C009ACE8C0099E
:10520000ACE8C0098D4670470446AFF300802046E5
:10521000FAF7CBFF00487047703100200148704713
:10522000704700BF7431002001491820ABBEFEE773
:1052300026000200704710B5FFF7F0FF4FF00001A5
:10524000016010BD02040608000000000102030412
:105250000102030406070809000001000200010022
:10526000030001000200010004000100020001002F
:10527000030001000200010005000100020001001E
:10528000030001000200010004000100020001000F
:1052900003000100020001000600010002000100FD
:1052A00003000100020001000400010002000100EF
:1052B00003000100020001000500010002000100DE
:1052C00003000100020001000400010002000100CF
:1052D00003000100020001000700010002000100BC
:1052E00003000100020001000400010002000100AF
:1052F000030001000200010005000100020001009E
:10530000030001000200010004000100020001008E
:10531000030001000200010006000100020001007C
:10532000030001000200010004000100020001006E
:10533000030001000200010005000100020001005D
:10534000030001000200010004000100020001004E
:105350000300010002000100785300080000002053
:105360009C00000054010008145400089C00002018
:10537000343500007001000800000000000000004B
:10538000000000000000000000000000000000001D
:1053900000000000A0A1A2A3A4A5A0A1A2A3A4A56F
:1053A00000010203010000000000000000000000F6
:1053B00000000000000000000000000000000000ED
:1053C00000000000000000000000000000000000DD
:1053D00000000000000000000000000000000000CD
:1053E00000000000000000000000000000000000BD
:1053F00000000000000000000000000000000000AD
:10540000000000000000000000000000000000009C
:045410000000000098
:0400000508000119D5
:00000001FF
